:0400000076EF37F070
:106EEC00000179EF37F0000E956E000E836E000EE8
:106EFC00046E000E026E000E036E81B088EF37F048
:106F0C008AEF37F0B1EF37F00250D8A490EF37F09A
:106F1C0092EF37F0B1EF37F0680E016EE40EE82E09
:106F2C00FED7012EFCD700D081B09FEF37F0A1EF38
:106F3C0037F0BAEF37F00428D8A4A7EF37F0A9EF51
:106F4C0037F0ACEF37F00468ADEF37F0042A010EE0
:106F5C00026EBAEF37F081A0B6EF37F0B8EF37F02A
:106F6C00BAEF37F0000E026E81B2BFEF37F0C1EF0F
:106F7C0037F0E9EF37F00350D8A4C7EF37F0C9EF7B
:106F8C0037F0E9EF37F0680E016EE40EE82EFED70D
:106F9C00012EFCD700D081B2D6EF37F0D8EF37F006
:106FAC00F2EF37F00450D8A4DEEF37F0E0EF37F013
:106FBC00E4EF37F0000E046EE5EF37F00406010E37
:106FCC00036EF2EF37F081A2EEEF37F0F0EF37F00F
:106FDC00F2EF37F0000E036E04C083FF1A0E016E41
:106FEC00F80EE82EFED7012EFCD700D083EF37F039
:046FFC0000EF00F0B2
:020000040020DA
:08000000FFFFFFFFFFFFFFFF00
:020000040030CA
:0E000000FF02191EFF8385FF0FC00FE00F40A7
:00000001FF
